{
  "contractName": "Certification",
  "abi": [
    {
      "constant": true,
      "inputs": [
        {
          "name": "",
          "type": "bytes32"
        }
      ],
      "name": "certificates",
      "outputs": [
        {
          "name": "candidate_name",
          "type": "string"
        },
        {
          "name": "org_name",
          "type": "string"
        },
        {
          "name": "course_name",
          "type": "string"
        },
        {
          "name": "ssn",
          "type": "string"
        },
        {
          "name": "expiration_date",
          "type": "uint256"
        }
      ],
      "payable": false,
      "stateMutability": "view",
      "type": "function"
    },
    {
      "inputs": [],
      "payable": false,
      "stateMutability": "nonpayable",
      "type": "constructor"
    },
    {
      "anonymous": false,
      "inputs": [
        {
          "indexed": false,
          "name": "_certificateId",
          "type": "bytes32"
        }
      ],
      "name": "certificateGenerated",
      "type": "event"
    },
    {
      "constant": false,
      "inputs": [
        {
          "name": "_id",
          "type": "string"
        },
        {
          "name": "_candidate_name",
          "type": "string"
        },
        {
          "name": "_org_name",
          "type": "string"
        },
        {
          "name": "_course_name",
          "type": "string"
        },
        {
          "name": "_ssn",
          "type": "string"
        },
        {
          "name": "_expiration_date",
          "type": "uint256"
        }
      ],
      "name": "generateCertificate",
      "outputs": [],
      "payable": false,
      "stateMutability": "nonpayable",
      "type": "function"
    },
    {
      "constant": true,
      "inputs": [
        {
          "name": "_id",
          "type": "string"
        }
      ],
      "name": "getData",
      "outputs": [
        {
          "name": "",
          "type": "string"
        },
        {
          "name": "",
          "type": "string"
        },
        {
          "name": "",
          "type": "string"
        },
        {
          "name": "",
          "type": "string"
        },
        {
          "name": "",
          "type": "uint256"
        }
      ],
      "payable": false,
      "stateMutability": "view",
      "type": "function"
    }
  ],
  "bytecode": "0x608060405234801561001057600080fd5b50610f2b806100206000396000f300608060405260043610610057576000357c0100000000000000000000000000000000000000000000000000000000900463ffffffff168063742f06881461005c57806395b76f6814610251578063ae55c888146103dc575b600080fd5b34801561006857600080fd5b5061008b6004803603810190808035600019169060200190929190505050610609565b604051808060200180602001806020018060200186815260200185810385528a818151815260200191508051906020019080838360005b838110156100dd5780820151818401526020810190506100c2565b50505050905090810190601f16801561010a5780820380516001836020036101000a031916815260200191505b50858103845289818151815260200191508051906020019080838360005b83811015610143578082015181840152602081019050610128565b50505050905090810190601f1680156101705780820380516001836020036101000a031916815260200191505b50858103835288818151815260200191508051906020019080838360005b838110156101a957808201518184015260208101905061018e565b50505050905090810190601f1680156101d65780820380516001836020036101000a031916815260200191505b50858103825287818151815260200191508051906020019080838360005b8381101561020f5780820151818401526020810190506101f4565b50505050905090810190601f16801561023c5780820380516001836020036101000a031916815260200191505b50995050505050505050505060405180910390f35b34801561025d57600080fd5b506103da600480360381019080803590602001908201803590602001908080601f0160208091040260200160405190810160405280939291908181526020018383808284378201915050505050509192919290803590602001908201803590602001908080601f0160208091040260200160405190810160405280939291908181526020018383808284378201915050505050509192919290803590602001908201803590602001908080601f0160208091040260200160405190810160405280939291908181526020018383808284378201915050505050509192919290803590602001908201803590602001908080601f0160208091040260200160405190810160405280939291908181526020018383808284378201915050505050509192919290803590602001908201803590602001908080601f01602080910402602001604051908101604052809392919081815260200183838082843782019150505050505091929192908035906020019092919050505061089f565b005b3480156103e857600080fd5b50610443600480360381019080803590602001908201803590602001908080601f0160208091040260200160405190810160405280939291908181526020018383808284378201915050505050509192919290505050610a72565b604051808060200180602001806020018060200186815260200185810385528a818151815260200191508051906020019080838360005b8381101561049557808201518184015260208101905061047a565b50505050905090810190601f1680156104c25780820380516001836020036101000a031916815260200191505b50858103845289818151815260200191508051906020019080838360005b838110156104fb5780820151818401526020810190506104e0565b50505050905090810190601f1680156105285780820380516001836020036101000a031916815260200191505b50858103835288818151815260200191508051906020019080838360005b83811015610561578082015181840152602081019050610546565b50505050905090810190601f16801561058e5780820380516001836020036101000a031916815260200191505b50858103825287818151815260200191508051906020019080838360005b838110156105c75780820151818401526020810190506105ac565b50505050905090810190601f1680156105f45780820380516001836020036101000a031916815260200191505b50995050505050505050505060405180910390f35b6000602052806000526040600020600091509050806000018054600181600116156101000203166002900480601f0160208091040260200160405190810160405280929190818152602001828054600181600116156101000203166002900480156106b55780601f1061068a576101008083540402835291602001916106b5565b820191906000526020600020905b81548152906001019060200180831161069857829003601f168201915b505050505090806001018054600181600116156101000203166002900480601f0160208091040260200160405190810160405280929190818152602001828054600181600116156101000203166002900480156107535780601f1061072857610100808354040283529160200191610753565b820191906000526020600020905b81548152906001019060200180831161073657829003601f168201915b505050505090806002018054600181600116156101000203166002900480601f0160208091040260200160405190810160405280929190818152602001828054600181600116156101000203166002900480156107f15780601f106107c6576101008083540402835291602001916107f1565b820191906000526020600020905b8154815290600101906020018083116107d457829003601f168201915b505050505090806003018054600181600116156101000203166002900480601f01602080910402602001604051908101604052809291908181526020018280546001816001161561010002031660029004801561088f5780601f106108645761010080835404028352916020019161088f565b820191906000526020600020905b81548152906001019060200180831161087257829003601f168201915b5050505050908060040154905085565b60006108aa87610dff565b90506000806000836000191660001916815260200190815260200160002060040154141515610967576040517f08c379a00000000000000000000000000000000000000000000000000000000081526004018080602001828103825260288152602001807f4365727469666963617465207769746820676976656e20696420616c7265616481526020017f792065786973747300000000000000000000000000000000000000000000000081525060400191505060405180910390fd5b60a06040519081016040528087815260200186815260200185815260200184815260200183815250600080836000191660001916815260200190815260200160002060008201518160000190805190602001906109c5929190610e2a565b5060208201518160010190805190602001906109e2929190610e2a565b5060408201518160020190805190602001906109ff929190610e2a565b506060820151816003019080519060200190610a1c929190610e2a565b50608082015181600401559050507ff54e0f0055ffae318a21890316ed523f8a60aa59aaa279dfdcae7176155ec0db8160405180826000191660001916815260200191505060405180910390a150505050505050565b606080606080600080610a83610eaa565b610a8c88610dff565b9150600080836000191660001916815260200190815260200160002060a06040519081016040529081600082018054600181600116156101000203166002900480601f016020809104026020016040519081016040528092919081815260200182805460018160011615610100020316600290048015610b4d5780601f10610b2257610100808354040283529160200191610b4d565b820191906000526020600020905b815481529060010190602001808311610b3057829003601f168201915b50505050508152602001600182018054600181600116156101000203166002900480601f016020809104026020016040519081016040528092919081815260200182805460018160011615610100020316600290048015610bef5780601f10610bc457610100808354040283529160200191610bef565b820191906000526020600020905b815481529060010190602001808311610bd257829003601f168201915b50505050508152602001600282018054600181600116156101000203166002900480601f016020809104026020016040519081016040528092919081815260200182805460018160011615610100020316600290048015610c915780601f10610c6657610100808354040283529160200191610c91565b820191906000526020600020905b815481529060010190602001808311610c7457829003601f168201915b50505050508152602001600382018054600181600116156101000203166002900480601f016020809104026020016040519081016040528092919081815260200182805460018160011615610100020316600290048015610d335780601f10610d0857610100808354040283529160200191610d33565b820191906000526020600020905b815481529060010190602001808311610d1657829003601f168201915b5050505050815260200160048201548152505090506000816080015114151515610dc5576040517f08c379a000000000000000000000000000000000000000000000000000000000815260040180806020018281038252600e8152602001807f4e6f20646174612065786973747300000000000000000000000000000000000081525060200191505060405180910390fd5b8060000151816020015182604001518360600151846080015184945083935082925081915096509650965096509650505091939590929450565b60006060829050600081511415610e1c5760006001029150610e24565b602083015191505b50919050565b828054600181600116156101000203166002900490600052602060002090601f016020900481019282601f10610e6b57805160ff1916838001178555610e99565b82800160010185558215610e99579182015b82811115610e98578251825591602001919060010190610e7d565b5b509050610ea69190610eda565b5090565b60a06040519081016040528060608152602001606081526020016060815260200160608152602001600081525090565b610efc91905b80821115610ef8576000816000905550600101610ee0565b5090565b905600a165627a7a7230582047a48a732b02218be5f2b6776dd020e23fc28134883f9363576845dc82afea6c0029",
  "source": "pragma solidity ^0.4.24;\n\ncontract Certification {\n    constructor() public {}\n\n    struct Certificate {\n        string candidate_name;\n        string org_name;\n        string course_name;\n        string ssn;\n        uint256 expiration_date;\n    }\n\n    mapping(bytes32 => Certificate) public certificates;\n\n    event certificateGenerated(bytes32 _certificateId);\n\n    function stringToBytes32(string memory source) private pure returns (bytes32 result) {\n        bytes memory tempEmptyStringTest = bytes(source);\n        if (tempEmptyStringTest.length == 0) {\n            return 0x0;\n        }\n        assembly {\n                result := mload(add(source, 32))\n        }\n    }\n\n    function generateCertificate(\n        string memory _id,\n        string memory _candidate_name,\n        string memory _org_name, \n        string memory _course_name,\n        string memory _ssn,\n        uint256 _expiration_date) public {\n        bytes32 byte_id = stringToBytes32(_id);\n        require(certificates[byte_id].expiration_date == 0, \"Certificate with given id already exists\");\n        certificates[byte_id] = Certificate(_candidate_name, _org_name, _course_name, _ssn, _expiration_date);\n        emit certificateGenerated(byte_id);\n    }\n\n    function getData(string memory _id) public view returns(string memory, string memory, string memory,string memory, uint256) {\n        bytes32 byte_id = stringToBytes32(_id);\n        Certificate memory temp = certificates[byte_id];\n        require(temp.expiration_date != 0, \"No data exists\");\n        return (temp.candidate_name, temp.org_name, temp.course_name, temp.ssn, temp.expiration_date);\n    }\n}",
  "sourcePath": "/home/pavan/gitclones/blockchain-certification/contracts/Certification.sol",
  "compiler": {
    "name": "solc",
    "version": "0.4.26+commit.4563c3fc.Emscripten.clang"
  },
  "schemaVersion": "2.0.3",
  "updatedAt": "2022-12-04T16:44:44.624Z"
}